{
  "_format": "hh-sol-artifact-1",
  "contractName": "YourCollectible",
  "sourceName": "contracts/YourCollectible.sol",
  "abi": [
    {
      "inputs": [],
      "stateMutability": "nonpayable",
      "type": "constructor"
    },
    {
      "anonymous": false,
      "inputs": [
        {
          "indexed": true,
          "internalType": "address",
          "name": "owner",
          "type": "address"
        },
        {
          "indexed": true,
          "internalType": "address",
          "name": "approved",
          "type": "address"
        },
        {
          "indexed": true,
          "internalType": "uint256",
          "name": "tokenId",
          "type": "uint256"
        }
      ],
      "name": "Approval",
      "type": "event"
    },
    {
      "anonymous": false,
      "inputs": [
        {
          "indexed": true,
          "internalType": "address",
          "name": "owner",
          "type": "address"
        },
        {
          "indexed": true,
          "internalType": "address",
          "name": "operator",
          "type": "address"
        },
        {
          "indexed": false,
          "internalType": "bool",
          "name": "approved",
          "type": "bool"
        }
      ],
      "name": "ApprovalForAll",
      "type": "event"
    },
    {
      "anonymous": false,
      "inputs": [
        {
          "indexed": true,
          "internalType": "address",
          "name": "from",
          "type": "address"
        },
        {
          "indexed": true,
          "internalType": "address",
          "name": "to",
          "type": "address"
        },
        {
          "indexed": true,
          "internalType": "uint256",
          "name": "tokenId",
          "type": "uint256"
        }
      ],
      "name": "Transfer",
      "type": "event"
    },
    {
      "inputs": [
        {
          "internalType": "uint256",
          "name": "",
          "type": "uint256"
        }
      ],
      "name": "allThread",
      "outputs": [
        {
          "internalType": "bytes32",
          "name": "tokenId",
          "type": "bytes32"
        },
        {
          "internalType": "bytes32",
          "name": "tokenId2",
          "type": "bytes32"
        },
        {
          "internalType": "uint256",
          "name": "editCount",
          "type": "uint256"
        },
        {
          "internalType": "address",
          "name": "author",
          "type": "address"
        },
        {
          "internalType": "uint256",
          "name": "good",
          "type": "uint256"
        },
        {
          "internalType": "uint256",
          "name": "suspect",
          "type": "uint256"
        }
      ],
      "stateMutability": "view",
      "type": "function"
    },
    {
      "inputs": [
        {
          "internalType": "address",
          "name": "to",
          "type": "address"
        },
        {
          "internalType": "uint256",
          "name": "tokenId",
          "type": "uint256"
        }
      ],
      "name": "approve",
      "outputs": [],
      "stateMutability": "nonpayable",
      "type": "function"
    },
    {
      "inputs": [
        {
          "internalType": "address",
          "name": "owner",
          "type": "address"
        }
      ],
      "name": "balanceOf",
      "outputs": [
        {
          "internalType": "uint256",
          "name": "",
          "type": "uint256"
        }
      ],
      "stateMutability": "view",
      "type": "function"
    },
    {
      "inputs": [],
      "name": "baseURI",
      "outputs": [
        {
          "internalType": "string",
          "name": "",
          "type": "string"
        }
      ],
      "stateMutability": "view",
      "type": "function"
    },
    {
      "inputs": [
        {
          "internalType": "bytes32",
          "name": "",
          "type": "bytes32"
        }
      ],
      "name": "forSale",
      "outputs": [
        {
          "internalType": "bool",
          "name": "",
          "type": "bool"
        }
      ],
      "stateMutability": "view",
      "type": "function"
    },
    {
      "inputs": [
        {
          "internalType": "uint256",
          "name": "tokenId",
          "type": "uint256"
        }
      ],
      "name": "getApproved",
      "outputs": [
        {
          "internalType": "address",
          "name": "",
          "type": "address"
        }
      ],
      "stateMutability": "view",
      "type": "function"
    },
    {
      "inputs": [
        {
          "internalType": "uint256",
          "name": "threadId",
          "type": "uint256"
        }
      ],
      "name": "getThreadById",
      "outputs": [
        {
          "internalType": "string",
          "name": "",
          "type": "string"
        }
      ],
      "stateMutability": "view",
      "type": "function"
    },
    {
      "inputs": [
        {
          "internalType": "uint256",
          "name": "threadId",
          "type": "uint256"
        }
      ],
      "name": "getThreadGoodCount",
      "outputs": [
        {
          "internalType": "uint256",
          "name": "",
          "type": "uint256"
        }
      ],
      "stateMutability": "view",
      "type": "function"
    },
    {
      "inputs": [
        {
          "internalType": "uint256",
          "name": "threadId",
          "type": "uint256"
        }
      ],
      "name": "getThreadOwner",
      "outputs": [
        {
          "internalType": "address",
          "name": "",
          "type": "address"
        }
      ],
      "stateMutability": "view",
      "type": "function"
    },
    {
      "inputs": [],
      "name": "getTotalThreadCount",
      "outputs": [
        {
          "internalType": "uint256",
          "name": "",
          "type": "uint256"
        }
      ],
      "stateMutability": "view",
      "type": "function"
    },
    {
      "inputs": [
        {
          "internalType": "uint256",
          "name": "threadId",
          "type": "uint256"
        }
      ],
      "name": "giveThreadOneGood",
      "outputs": [],
      "stateMutability": "nonpayable",
      "type": "function"
    },
    {
      "inputs": [
        {
          "internalType": "address",
          "name": "owner",
          "type": "address"
        },
        {
          "internalType": "address",
          "name": "operator",
          "type": "address"
        }
      ],
      "name": "isApprovedForAll",
      "outputs": [
        {
          "internalType": "bool",
          "name": "",
          "type": "bool"
        }
      ],
      "stateMutability": "view",
      "type": "function"
    },
    {
      "inputs": [],
      "name": "name",
      "outputs": [
        {
          "internalType": "string",
          "name": "",
          "type": "string"
        }
      ],
      "stateMutability": "view",
      "type": "function"
    },
    {
      "inputs": [
        {
          "internalType": "uint256",
          "name": "tokenId",
          "type": "uint256"
        }
      ],
      "name": "ownerOf",
      "outputs": [
        {
          "internalType": "address",
          "name": "",
          "type": "address"
        }
      ],
      "stateMutability": "view",
      "type": "function"
    },
    {
      "inputs": [
        {
          "internalType": "bytes32",
          "name": "ipfsHash",
          "type": "bytes32"
        },
        {
          "internalType": "bytes32",
          "name": "ipfsHash2",
          "type": "bytes32"
        }
      ],
      "name": "postThread",
      "outputs": [
        {
          "internalType": "uint256",
          "name": "",
          "type": "uint256"
        }
      ],
      "stateMutability": "nonpayable",
      "type": "function"
    },
    {
      "inputs": [
        {
          "internalType": "address",
          "name": "from",
          "type": "address"
        },
        {
          "internalType": "address",
          "name": "to",
          "type": "address"
        },
        {
          "internalType": "uint256",
          "name": "tokenId",
          "type": "uint256"
        }
      ],
      "name": "safeTransferFrom",
      "outputs": [],
      "stateMutability": "nonpayable",
      "type": "function"
    },
    {
      "inputs": [
        {
          "internalType": "address",
          "name": "from",
          "type": "address"
        },
        {
          "internalType": "address",
          "name": "to",
          "type": "address"
        },
        {
          "internalType": "uint256",
          "name": "tokenId",
          "type": "uint256"
        },
        {
          "internalType": "bytes",
          "name": "_data",
          "type": "bytes"
        }
      ],
      "name": "safeTransferFrom",
      "outputs": [],
      "stateMutability": "nonpayable",
      "type": "function"
    },
    {
      "inputs": [
        {
          "internalType": "address",
          "name": "operator",
          "type": "address"
        },
        {
          "internalType": "bool",
          "name": "approved",
          "type": "bool"
        }
      ],
      "name": "setApprovalForAll",
      "outputs": [],
      "stateMutability": "nonpayable",
      "type": "function"
    },
    {
      "inputs": [
        {
          "internalType": "bytes4",
          "name": "interfaceId",
          "type": "bytes4"
        }
      ],
      "name": "supportsInterface",
      "outputs": [
        {
          "internalType": "bool",
          "name": "",
          "type": "bool"
        }
      ],
      "stateMutability": "view",
      "type": "function"
    },
    {
      "inputs": [],
      "name": "symbol",
      "outputs": [
        {
          "internalType": "string",
          "name": "",
          "type": "string"
        }
      ],
      "stateMutability": "view",
      "type": "function"
    },
    {
      "inputs": [
        {
          "internalType": "uint256",
          "name": "index",
          "type": "uint256"
        }
      ],
      "name": "tokenByIndex",
      "outputs": [
        {
          "internalType": "uint256",
          "name": "",
          "type": "uint256"
        }
      ],
      "stateMutability": "view",
      "type": "function"
    },
    {
      "inputs": [
        {
          "internalType": "address",
          "name": "owner",
          "type": "address"
        },
        {
          "internalType": "uint256",
          "name": "index",
          "type": "uint256"
        }
      ],
      "name": "tokenOfOwnerByIndex",
      "outputs": [
        {
          "internalType": "uint256",
          "name": "",
          "type": "uint256"
        }
      ],
      "stateMutability": "view",
      "type": "function"
    },
    {
      "inputs": [
        {
          "internalType": "uint256",
          "name": "tokenId",
          "type": "uint256"
        }
      ],
      "name": "tokenURI",
      "outputs": [
        {
          "internalType": "string",
          "name": "",
          "type": "string"
        }
      ],
      "stateMutability": "view",
      "type": "function"
    },
    {
      "inputs": [],
      "name": "totalSupply",
      "outputs": [
        {
          "internalType": "uint256",
          "name": "",
          "type": "uint256"
        }
      ],
      "stateMutability": "view",
      "type": "function"
    },
    {
      "inputs": [
        {
          "internalType": "address",
          "name": "from",
          "type": "address"
        },
        {
          "internalType": "address",
          "name": "to",
          "type": "address"
        },
        {
          "internalType": "uint256",
          "name": "tokenId",
          "type": "uint256"
        }
      ],
      "name": "transferFrom",
      "outputs": [],
      "stateMutability": "nonpayable",
      "type": "function"
    },
    {
      "inputs": [
        {
          "internalType": "bytes32",
          "name": "",
          "type": "bytes32"
        }
      ],
      "name": "uriToTokenId",
      "outputs": [
        {
          "internalType": "uint256",
          "name": "",
          "type": "uint256"
        }
      ],
      "stateMutability": "view",
      "type": "function"
    },
    {
      "inputs": [
        {
          "internalType": "address",
          "name": "",
          "type": "address"
        }
      ],
      "name": "userProfiles",
      "outputs": [
        {
          "internalType": "bytes32",
          "name": "profileJSON",
          "type": "bytes32"
        },
        {
          "internalType": "bytes32",
          "name": "profileJSON2",
          "type": "bytes32"
        },
        {
          "internalType": "bytes32",
          "name": "nickName",
          "type": "bytes32"
        }
      ],
      "stateMutability": "view",
      "type": "function"
    },
    {
      "inputs": [
        {
          "internalType": "address",
          "name": "",
          "type": "address"
        }
      ],
      "name": "whiteList",
      "outputs": [
        {
          "internalType": "bool",
          "name": "",
          "type": "bool"
        }
      ],
      "stateMutability": "view",
      "type": "function"
    }
  ],
  "bytecode": "0x60806040523480156200001157600080fd5b50604080518082018252600f81526e596f7572436f6c6c65637469626c6560881b602080830191909152825180840190935260038352622ca1a160e91b9083015290620000656301ffc9a760e01b6200010e565b81516200007a906006906020850190620001ac565b50805162000090906007906020840190620001ac565b50620000a36380ac58cd60e01b6200010e565b620000b5635b5e139f60e01b6200010e565b620000c763780e9d6360e01b6200010e565b505060408051808201909152601581527f68747470733a2f2f697066732e696f2f697066732f00000000000000000000006020820152620001089062000193565b62000258565b6001600160e01b031980821614156200016e576040805162461bcd60e51b815260206004820152601c60248201527f4552433136353a20696e76616c696420696e7465726661636520696400000000604482015290519081900360640190fd5b6001600160e01b0319166000908152602081905260409020805460ff19166001179055565b8051620001a8906009906020840190620001ac565b5050565b828054600181600116156101000203166002900490600052602060002090601f016020900481019282620001e457600085556200022f565b82601f10620001ff57805160ff19168380011785556200022f565b828001600101855582156200022f579182015b828111156200022f57825182559160200191906001019062000212565b506200023d92915062000241565b5090565b5b808211156200023d576000815560010162000242565b611ebc80620002686000396000f3fe608060405234801561001057600080fd5b50600436106101c45760003560e01c806342842e0e116100f9578063ae374b9911610097578063c87b56dd11610071578063c87b56dd1461065f578063e985e9c51461067c578063f6aeee8a146106aa578063faf4b1cf146106c7576101c4565b8063ae374b991461055f578063b7416f2a1461057c578063b88d4fde14610599576101c4565b80636c0360eb116100d35780636c0360eb146104fb57806370a082311461050357806395d89b4114610529578063a22cb46514610531576101c4565b806342842e0e1461048b5780634f6ccce7146104c15780636352211e146104de576101c4565b80632c9aaa0911610166578063361af32f11610140578063361af32f146103d3578063372c12b11461042b57806337aec254146104515780633c309df31461046e576101c4565b80632c9aaa091461035b5780632f745c5914610363578063332d56d71461038f576101c4565b8063095ea7b3116101a2578063095ea7b3146102ba57806310ee0b78146102e857806318160ddd1461031d57806323b872dd14610325576101c4565b806301ffc9a7146101c957806306fdde0314610204578063081812fc14610281575b600080fd5b6101f0600480360360208110156101df57600080fd5b50356001600160e01b0319166106e4565b604080519115158252519081900360200190f35b61020c610707565b6040805160208082528351818301528351919283929083019185019080838360005b8381101561024657818101518382015260200161022e565b50505050905090810190601f1680156102735780820380516001836020036101000a031916815260200191505b509250505060405180910390f35b61029e6004803603602081101561029757600080fd5b503561079d565b604080516001600160a01b039092168252519081900360200190f35b6102e6600480360360408110156102d057600080fd5b506001600160a01b0381351690602001356107ff565b005b61030b600480360360408110156102fe57600080fd5b50803590602001356108da565b60408051918252519081900360200190f35b61030b61097e565b6102e66004803603606081101561033b57600080fd5b506001600160a01b0381358116916020810135909116906040013561098f565b61030b6109e6565b61030b6004803603604081101561037957600080fd5b506001600160a01b0381351690602001356109f2565b6103b5600480360360208110156103a557600080fd5b50356001600160a01b0316610a1b565b60408051938452602084019290925282820152519081900360600190f35b6103f0600480360360208110156103e957600080fd5b5035610a3c565b604080519687526020870195909552858501939093526001600160a01b039091166060850152608084015260a0830152519081900360c00190f35b6101f06004803603602081101561044157600080fd5b50356001600160a01b0316610a7b565b61020c6004803603602081101561046757600080fd5b5035610a90565b6102e66004803603602081101561048457600080fd5b5035610b9e565b6102e6600480360360608110156104a157600080fd5b506001600160a01b03813581169160208101359091169060400135610c14565b61030b600480360360208110156104d757600080fd5b5035610c2f565b61029e600480360360208110156104f457600080fd5b5035610c45565b61020c610c6d565b61030b6004803603602081101561051957600080fd5b50356001600160a01b0316610cce565b61020c610d36565b6102e66004803603604081101561054757600080fd5b506001600160a01b0381351690602001351515610d97565b6101f06004803603602081101561057557600080fd5b5035610e9c565b61030b6004803603602081101561059257600080fd5b5035610eb1565b6102e6600480360360808110156105af57600080fd5b6001600160a01b038235811692602081013590911691604082013591908101906080810160608201356401000000008111156105ea57600080fd5b8201836020820111156105fc57600080fd5b8035906020019184600183028401116401000000008311171561061e57600080fd5b91908080601f016020809104026020016040519081016040528093929190818152602001838380828437600092019190915250929550610ec3945050505050565b61020c6004803603602081101561067557600080fd5b5035610f21565b6101f06004803603604081101561069257600080fd5b506001600160a01b038135811691602001351661111b565b61029e600480360360208110156106c057600080fd5b5035611149565b61030b600480360360208110156106dd57600080fd5b5035611167565b6001600160e01b0319811660009081526020819052604090205460ff165b919050565b60068054604080516020601f60026000196101006001881615020190951694909404938401819004810282018101909252828152606093909290918301828280156107935780601f1061076857610100808354040283529160200191610793565b820191906000526020600020905b81548152906001019060200180831161077657829003601f168201915b5050505050905090565b60006107a8826111db565b6107e35760405162461bcd60e51b815260040180806020018281038252602c815260200180611db1602c913960400191505060405180910390fd5b506000908152600460205260409020546001600160a01b031690565b600061080a82610c45565b9050806001600160a01b0316836001600160a01b0316141561085d5760405162461bcd60e51b8152600401808060200182810382526021815260200180611e356021913960400191505060405180910390fd5b806001600160a01b031661086f6111e8565b6001600160a01b0316148061089057506108908161088b6111e8565b61111b565b6108cb5760405162461bcd60e51b8152600401808060200182810382526038815260200180611d046038913960400191505060405180910390fd5b6108d583836111ec565b505050565b60006108e6600a61125a565b60006108f2600a611263565b6040805160c0810182528681526020808201878152600083850181815233606086019081526080860183815260a08701848152898552600b90965296909220945185559151600185015590516002840155516003830180546001600160a01b0319166001600160a01b039092169190911790559151600482015590516005909101559150505b92915050565b600061098a6002611267565b905090565b6109a061099a6111e8565b82611272565b6109db5760405162461bcd60e51b8152600401808060200182810382526031815260200180611e566031913960400191505060405180910390fd5b6108d5838383611316565b600061098a600a611263565b6001600160a01b0382166000908152600160205260408120610a149083611462565b9392505050565b600d6020526000908152604090208054600182015460029092015490919083565b600b602052600090815260409020805460018201546002830154600384015460048501546005909501549394929391926001600160a01b039091169186565b600c6020526000908152604090205460ff1681565b6000818152600b6020818152604080842080548251808501919091528251808203850181528184018452958790529383526001015460608481019190915281518085038201815260808501909252845190949391928492849260a0909101918291908501908083835b60208310610b185780518252601f199092019160209182019101610af9565b51815160209384036101000a600019018019909216911617905285519190930192850191508083835b60208310610b605780518252601f199092019160209182019101610b41565b6001836020036101000a0380198251168184511680821785525050505050509050019250505060405160208183030381529060405292505050919050565b80610ba9600a611263565b811115610bf9576040805162461bcd60e51b8152602060048201526019602482015278496e707574207468726561644964206e6f7420666f756e642160381b604482015290519081900360640190fd5b506000908152600b6020526040902060040180546001019055565b6108d583838360405180602001604052806000815250610ec3565b600080610c3d60028461146e565b509392505050565b600061097882604051806060016040528060298152602001611d66602991396002919061148a565b60098054604080516020601f60026000196101006001881615020190951694909404938401819004810282018101909252828152606093909290918301828280156107935780601f1061076857610100808354040283529160200191610793565b60006001600160a01b038216610d155760405162461bcd60e51b815260040180806020018281038252602a815260200180611d3c602a913960400191505060405180910390fd5b6001600160a01b038216600090815260016020526040902061097890611267565b60078054604080516020601f60026000196101006001881615020190951694909404938401819004810282018101909252828152606093909290918301828280156107935780601f1061076857610100808354040283529160200191610793565b610d9f6111e8565b6001600160a01b0316826001600160a01b03161415610e05576040805162461bcd60e51b815260206004820152601960248201527f4552433732313a20617070726f766520746f2063616c6c657200000000000000604482015290519081900360640190fd5b8060056000610e126111e8565b6001600160a01b03908116825260208083019390935260409182016000908120918716808252919093529120805460ff191692151592909217909155610e566111e8565b6001600160a01b03167f17307eab39ab6107e8899845ad3d59bd9653f200f220920489ca2b5937696c318360405180821515815260200191505060405180910390a35050565b600e6020526000908152604090205460ff1681565b600f6020526000908152604090205481565b610ed4610ece6111e8565b83611272565b610f0f5760405162461bcd60e51b8152600401808060200182810382526031815260200180611e566031913960400191505060405180910390fd5b610f1b84848484611497565b50505050565b6060610f2c826111db565b610f675760405162461bcd60e51b815260040180806020018281038252602f815260200180611e06602f913960400191505060405180910390fd5b60008281526008602090815260408083208054825160026001831615610100026000190190921691909104601f810185900485028201850190935282815292909190830182828015610ffa5780601f10610fcf57610100808354040283529160200191610ffa565b820191906000526020600020905b815481529060010190602001808311610fdd57829003601f168201915b50505050509050600061100b610c6d565b905080516000141561101f57509050610702565b8151156110e05780826040516020018083805190602001908083835b6020831061105a5780518252601f19909201916020918201910161103b565b51815160209384036101000a600019018019909216911617905285519190930192850191508083835b602083106110a25780518252601f199092019160209182019101611083565b6001836020036101000a0380198251168184511680821785525050505050509050019250505060405160208183030381529060405292505050610702565b806110ea856114e9565b60405160200180838051906020019080838360208310610b185780518252601f199092019160209182019101610af9565b6001600160a01b03918216600090815260056020908152604080832093909416825291909152205460ff1690565b6000908152600b60205260409020600301546001600160a01b031690565b600081611174600a611263565b8111156111c4576040805162461bcd60e51b8152602060048201526019602482015278496e707574207468726561644964206e6f7420666f756e642160381b604482015290519081900360640190fd5b50506000908152600b602052604090206004015490565b60006109786002836115c4565b3390565b600081815260046020526040902080546001600160a01b0319166001600160a01b038416908117909155819061122182610c45565b6001600160a01b03167f8c5be1e5ebec7d5bd14f71427d1e84f3dd0314c0f7b2291e5b200ac8c7c3b92560405160405180910390a45050565b80546001019055565b5490565b600061097882611263565b600061127d826111db565b6112b85760405162461bcd60e51b815260040180806020018281038252602c815260200180611cd8602c913960400191505060405180910390fd5b60006112c383610c45565b9050806001600160a01b0316846001600160a01b031614806112fe5750836001600160a01b03166112f38461079d565b6001600160a01b0316145b8061130e575061130e818561111b565b949350505050565b826001600160a01b031661132982610c45565b6001600160a01b03161461136e5760405162461bcd60e51b8152600401808060200182810382526029815260200180611ddd6029913960400191505060405180910390fd5b6001600160a01b0382166113b35760405162461bcd60e51b8152600401808060200182810382526024815260200180611cb46024913960400191505060405180910390fd5b6113be8383836108d5565b6113c96000826111ec565b6001600160a01b03831660009081526001602052604090206113eb90826115d0565b506001600160a01b038216600090815260016020526040902061140e90826115dc565b5061141b600282846115e8565b5080826001600160a01b0316846001600160a01b03167fddf252ad1be2c89b69c2b068fc378daa952ba7f163c4a11628f55a4df523b3ef60405160405180910390a4505050565b6000610a1483836115fe565b600080808061147d8686611662565b9097909650945050505050565b600061130e8484846116dd565b6114a2848484611316565b6114ae848484846117a7565b610f1b5760405162461bcd60e51b8152600401808060200182810382526032815260200180611c826032913960400191505060405180910390fd5b60608161150e57506040805180820190915260018152600360fc1b6020820152610702565b8160005b811561152657600101600a82049150611512565b60008167ffffffffffffffff8111801561153f57600080fd5b506040519080825280601f01601f19166020018201604052801561156a576020820181803683370190505b50859350905060001982015b83156115bb57600a840660300160f81b8282806001900393508151811061159957fe5b60200101906001600160f81b031916908160001a905350600a84049350611576565b50949350505050565b6000610a14838361190f565b6000610a148383611927565b6000610a1483836119ed565b600061130e84846001600160a01b038516611a37565b815460009082106116405760405162461bcd60e51b8152600401808060200182810382526022815260200180611c606022913960400191505060405180910390fd5b82600001828154811061164f57fe5b9060005260206000200154905092915050565b8154600090819083106116a65760405162461bcd60e51b8152600401808060200182810382526022815260200180611d8f6022913960400191505060405180910390fd5b60008460000184815481106116b757fe5b906000526020600020906002020190508060000154816001015492509250509250929050565b600082815260018401602052604081205482816117785760405162461bcd60e51b81526004018080602001828103825283818151815260200191508051906020019080838360005b8381101561173d578181015183820152602001611725565b50505050905090810190601f16801561176a5780820380516001836020036101000a031916815260200191505b509250505060405180910390fd5b5084600001600182038154811061178b57fe5b9060005260206000209060020201600101549150509392505050565b60006117bb846001600160a01b0316611ace565b6117c75750600161130e565b60006118d5630a85bd0160e11b6117dc6111e8565b88878760405160240180856001600160a01b03168152602001846001600160a01b0316815260200183815260200180602001828103825283818151815260200191508051906020019080838360005b8381101561184357818101518382015260200161182b565b50505050905090810190601f1680156118705780820380516001836020036101000a031916815260200191505b5095505050505050604051602081830303815290604052906001600160e01b0319166020820180516001600160e01b038381831617835250505050604051806060016040528060328152602001611c82603291396001600160a01b0388169190611ad4565b905060008180602001905160208110156118ee57600080fd5b50516001600160e01b031916630a85bd0160e11b1492505050949350505050565b60009081526001919091016020526040902054151590565b600081815260018301602052604081205480156119e3578354600019808301919081019060009087908390811061195a57fe5b906000526020600020015490508087600001848154811061197757fe5b6000918252602080832090910192909255828152600189810190925260409020908401905586548790806119a757fe5b60019003818190600052602060002001600090559055866001016000878152602001908152602001600020600090556001945050505050610978565b6000915050610978565b60006119f9838361190f565b611a2f57508154600181810184556000848152602080822090930184905584548482528286019093526040902091909155610978565b506000610978565b600082815260018401602052604081205480611a9c575050604080518082018252838152602080820184815286546001818101895560008981528481209551600290930290950191825591519082015586548684528188019092529290912055610a14565b82856000016001830381548110611aaf57fe5b9060005260206000209060020201600101819055506000915050610a14565b3b151590565b606061130e848460008585611ae885611ace565b611b39576040805162461bcd60e51b815260206004820152601d60248201527f416464726573733a2063616c6c20746f206e6f6e2d636f6e7472616374000000604482015290519081900360640190fd5b600080866001600160a01b031685876040518082805190602001908083835b60208310611b775780518252601f199092019160209182019101611b58565b6001836020036101000a03801982511681845116808217855250505050505090500191505060006040518083038185875af1925050503d8060008114611bd9576040519150601f19603f3d011682016040523d82523d6000602084013e611bde565b606091505b5091509150611bee828286611bf9565b979650505050505050565b60608315611c08575081610a14565b825115611c185782518084602001fd5b60405162461bcd60e51b815260206004820181815284516024840152845185939192839260440191908501908083836000831561173d57818101518382015260200161172556fe456e756d657261626c655365743a20696e646578206f7574206f6620626f756e64734552433732313a207472616e7366657220746f206e6f6e20455243373231526563656976657220696d706c656d656e7465724552433732313a207472616e7366657220746f20746865207a65726f20616464726573734552433732313a206f70657261746f7220717565727920666f72206e6f6e6578697374656e7420746f6b656e4552433732313a20617070726f76652063616c6c6572206973206e6f74206f776e6572206e6f7220617070726f76656420666f7220616c6c4552433732313a2062616c616e636520717565727920666f7220746865207a65726f20616464726573734552433732313a206f776e657220717565727920666f72206e6f6e6578697374656e7420746f6b656e456e756d657261626c654d61703a20696e646578206f7574206f6620626f756e64734552433732313a20617070726f76656420717565727920666f72206e6f6e6578697374656e7420746f6b656e4552433732313a207472616e73666572206f6620746f6b656e2074686174206973206e6f74206f776e4552433732314d657461646174613a2055524920717565727920666f72206e6f6e6578697374656e7420746f6b656e4552433732313a20617070726f76616c20746f2063757272656e74206f776e65724552433732313a207472616e736665722063616c6c6572206973206e6f74206f776e6572206e6f7220617070726f766564a2646970667358221220582cf856fea9db5565797fd1897fcb82e8269108f81810beb77ff2a8ee72737e64736f6c63430007060033",
  "linkReferences": {},
  "deployedLinkReferences": {}
}